{
  "contracts/NewsDapp.sol": {
    "NewsDapp": {
      "abi": [
        {
          "anonymous": false,
          "inputs": [
            {
              "indexed": true,
              "internalType": "uint256",
              "name": "tokenId",
              "type": "uint256"
            },
            {
              "indexed": false,
              "internalType": "address",
              "name": "author",
              "type": "address"
            },
            {
              "indexed": false,
              "internalType": "string",
              "name": "title",
              "type": "string"
            },
            {
              "indexed": false,
              "internalType": "string",
              "name": "content",
              "type": "string"
            },
            {
              "indexed": false,
              "internalType": "string",
              "name": "time",
              "type": "string"
            },
            {
              "indexed": false,
              "internalType": "uint256",
              "name": "upvote",
              "type": "uint256"
            }
          ],
          "name": "newsCreated",
          "type": "event"
        },
        {
          "inputs": [
            {
              "internalType": "string",
              "name": "_title",
              "type": "string"
            },
            {
              "internalType": "string",
              "name": "_content",
              "type": "string"
            },
            {
              "internalType": "string",
              "name": "_time",
              "type": "string"
            }
          ],
          "name": "createNews",
          "outputs": [],
          "stateMutability": "payable",
          "type": "function"
        },
        {
          "inputs": [],
          "name": "fetchNews",
          "outputs": [
            {
              "components": [
                {
                  "internalType": "uint256",
                  "name": "tokenId",
                  "type": "uint256"
                },
                {
                  "internalType": "address payable",
                  "name": "author",
                  "type": "address"
                },
                {
                  "internalType": "string",
                  "name": "title",
                  "type": "string"
                },
                {
                  "internalType": "string",
                  "name": "content",
                  "type": "string"
                },
                {
                  "internalType": "string",
                  "name": "time",
                  "type": "string"
                },
                {
                  "internalType": "uint256",
                  "name": "upvote",
                  "type": "uint256"
                }
              ],
              "internalType": "struct NewsDapp.news[]",
              "name": "",
              "type": "tuple[]"
            }
          ],
          "stateMutability": "view",
          "type": "function"
        },
        {
          "inputs": [
            {
              "internalType": "uint256",
              "name": "tokenId",
              "type": "uint256"
            }
          ],
          "name": "increaseUpvote",
          "outputs": [],
          "stateMutability": "nonpayable",
          "type": "function"
        },
        {
          "inputs": [],
          "name": "mostUpvote",
          "outputs": [
            {
              "components": [
                {
                  "internalType": "uint256",
                  "name": "tokenId",
                  "type": "uint256"
                },
                {
                  "internalType": "address payable",
                  "name": "author",
                  "type": "address"
                },
                {
                  "internalType": "string",
                  "name": "title",
                  "type": "string"
                },
                {
                  "internalType": "string",
                  "name": "content",
                  "type": "string"
                },
                {
                  "internalType": "string",
                  "name": "time",
                  "type": "string"
                },
                {
                  "internalType": "uint256",
                  "name": "upvote",
                  "type": "uint256"
                }
              ],
              "internalType": "struct NewsDapp.news",
              "name": "",
              "type": "tuple"
            }
          ],
          "stateMutability": "view",
          "type": "function"
        },
        {
          "inputs": [
            {
              "internalType": "uint256",
              "name": "tokenId",
              "type": "uint256"
            }
          ],
          "name": "transferSupport",
          "outputs": [],
          "stateMutability": "payable",
          "type": "function"
        }
      ],
      "evm": {
        "bytecode": {
          "linkReferences": {},
          "object": "608060405234801561001057600080fd5b50611180806100206000396000f3fe60806040526004361061004a5760003560e01c8063650f49091461004f578063710db71b1461007a5780637a41fde21461009657806380313552146100b25780639ff95399146100dd575b600080fd5b34801561005b57600080fd5b50610064610106565b6040516100719190610e69565b60405180910390f35b610094600480360381019061008f9190610b51565b6103c0565b005b6100b060048036038101906100ab9190610aba565b610440565b005b3480156100be57600080fd5b506100c76105ab565b6040516100d49190610e47565b60405180910390f35b3480156100e957600080fd5b5061010460048036038101906100ff9190610b51565b6108fb565b005b61010e61094e565b600080600190506000600190505b610126600061092a565b811161017a57826001600083815260200190815260200160002060050154111561016757600160008281526020019081526020016000206005015492508091505b80806101729061104c565b91505061011c565b50600160008281526020019081526020016000206040518060c0016040529081600082015481526020016001820160009054906101000a900473ffffffffffffffffffffffffffffffffffffffff1673ffffffffffffffffffffffffffffffffffffffff1673ffffffffffffffffffffffffffffffffffffffff16815260200160028201805461020990610fe9565b80601f016020809104026020016040519081016040528092919081815260200182805461023590610fe9565b80156102825780601f1061025757610100808354040283529160200191610282565b820191906000526020600020905b81548152906001019060200180831161026557829003601f168201915b5050505050815260200160038201805461029b90610fe9565b80601f01602080910402602001604051908101604052809291908181526020018280546102c790610fe9565b80156103145780601f106102e957610100808354040283529160200191610314565b820191906000526020600020905b8154815290600101906020018083116102f757829003601f168201915b5050505050815260200160048201805461032d90610fe9565b80601f016020809104026020016040519081016040528092919081815260200182805461035990610fe9565b80156103a65780601f1061037b576101008083540402835291602001916103a6565b820191906000526020600020905b81548152906001019060200180831161038957829003601f168201915b505050505081526020016005820154815250509250505090565b6001600082815260200190815260200160002060010160009054906101000a900473ffffffffffffffffffffffffffffffffffffffff1673ffffffffffffffffffffffffffffffffffffffff166108fc349081150290604051600060405180830381858888f1935050505015801561043c573d6000803e3d6000fd5b5050565b61044a6000610938565b6000610456600061092a565b90506040518060c001604052808281526020013373ffffffffffffffffffffffffffffffffffffffff1681526020018581526020018481526020018381526020016000815250600160008381526020019081526020016000206000820151816000015560208201518160010160006101000a81548173ffffffffffffffffffffffffffffffffffffffff021916908373ffffffffffffffffffffffffffffffffffffffff160217905550604082015181600201908051906020019061051c92919061099a565b50606082015181600301908051906020019061053992919061099a565b50608082015181600401908051906020019061055692919061099a565b5060a08201518160050155905050807f7e2df7f1d6d80d00ef34ef2f5b47d103316c62852a9018c9fc7ec3350b0ebef733868686600060405161059d959493929190610ddf565b60405180910390a250505050565b60606000806105ba600061092a565b905060008167ffffffffffffffff8111156105fe577f4e487b7100000000000000000000000000000000000000000000000000000000600052604160045260246000fd5b60405190808252806020026020018201604052801561063757816020015b61062461094e565b81526020019060019003908161061c5790505b5090506000600190505b8281116108f1576000600160008381526020019081526020016000209050806040518060c0016040529081600082015481526020016001820160009054906101000a900473ffffffffffffffffffffffffffffffffffffffff1673ffffffffffffffffffffffffffffffffffffffff1673ffffffffffffffffffffffffffffffffffffffff1681526020016002820180546106db90610fe9565b80601f016020809104026020016040519081016040528092919081815260200182805461070790610fe9565b80156107545780601f1061072957610100808354040283529160200191610754565b820191906000526020600020905b81548152906001019060200180831161073757829003601f168201915b5050505050815260200160038201805461076d90610fe9565b80601f016020809104026020016040519081016040528092919081815260200182805461079990610fe9565b80156107e65780601f106107bb576101008083540402835291602001916107e6565b820191906000526020600020905b8154815290600101906020018083116107c957829003601f168201915b505050505081526020016004820180546107ff90610fe9565b80601f016020809104026020016040519081016040528092919081815260200182805461082b90610fe9565b80156108785780601f1061084d57610100808354040283529160200191610878565b820191906000526020600020905b81548152906001019060200180831161085b57829003601f168201915b505050505081526020016005820154815250508386815181106108c4577f4e487b7100000000000000000000000000000000000000000000000000000000600052603260045260246000fd5b602002602001018190525084806108da9061104c565b9550505080806108e99061104c565b915050610641565b5080935050505090565b6001600082815260200190815260200160002060050160008154809291906109229061104c565b919050555050565b600081600001549050919050565b6001816000016000828254019250508190555050565b6040518060c0016040528060008152602001600073ffffffffffffffffffffffffffffffffffffffff168152602001606081526020016060815260200160608152602001600081525090565b8280546109a690610fe9565b90600052602060002090601f0160209004810192826109c85760008555610a0f565b82601f106109e157805160ff1916838001178555610a0f565b82800160010185558215610a0f579182015b82811115610a0e5782518255916020019190600101906109f3565b5b509050610a1c9190610a20565b5090565b5b80821115610a39576000816000905550600101610a21565b5090565b6000610a50610a4b84610eb0565b610e8b565b905082815260208101848484011115610a6857600080fd5b610a73848285610fa7565b509392505050565b600082601f830112610a8c57600080fd5b8135610a9c848260208601610a3d565b91505092915050565b600081359050610ab481611133565b92915050565b600080600060608486031215610acf57600080fd5b600084013567ffffffffffffffff811115610ae957600080fd5b610af586828701610a7b565b935050602084013567ffffffffffffffff811115610b1257600080fd5b610b1e86828701610a7b565b925050604084013567ffffffffffffffff811115610b3b57600080fd5b610b4786828701610a7b565b9150509250925092565b600060208284031215610b6357600080fd5b6000610b7184828501610aa5565b91505092915050565b6000610b868383610ca2565b905092915050565b610b9781610f59565b82525050565b610ba681610f47565b82525050565b6000610bb782610ef1565b610bc18185610f14565b935083602082028501610bd385610ee1565b8060005b85811015610c0f5784840389528151610bf08582610b7a565b9450610bfb83610f07565b925060208a01995050600181019050610bd7565b50829750879550505050505092915050565b610c2a81610f95565b82525050565b6000610c3b82610efc565b610c458185610f25565b9350610c55818560208601610fb6565b610c5e81611122565b840191505092915050565b6000610c7482610efc565b610c7e8185610f36565b9350610c8e818560208601610fb6565b610c9781611122565b840191505092915050565b600060c083016000830151610cba6000860182610dd0565b506020830151610ccd6020860182610b8e565b5060408301518482036040860152610ce58282610c30565b91505060608301518482036060860152610cff8282610c30565b91505060808301518482036080860152610d198282610c30565b91505060a0830151610d2e60a0860182610dd0565b508091505092915050565b600060c083016000830151610d516000860182610dd0565b506020830151610d646020860182610b8e565b5060408301518482036040860152610d7c8282610c30565b91505060608301518482036060860152610d968282610c30565b91505060808301518482036080860152610db08282610c30565b91505060a0830151610dc560a0860182610dd0565b508091505092915050565b610dd981610f8b565b82525050565b600060a082019050610df46000830188610b9d565b8181036020830152610e068187610c69565b90508181036040830152610e1a8186610c69565b90508181036060830152610e2e8185610c69565b9050610e3d6080830184610c21565b9695505050505050565b60006020820190508181036000830152610e618184610bac565b905092915050565b60006020820190508181036000830152610e838184610d39565b905092915050565b6000610e95610ea6565b9050610ea1828261101b565b919050565b6000604051905090565b600067ffffffffffffffff821115610ecb57610eca6110f3565b5b610ed482611122565b9050602081019050919050565b6000819050602082019050919050565b600081519050919050565b600081519050919050565b6000602082019050919050565b600082825260208201905092915050565b600082825260208201905092915050565b600082825260208201905092915050565b6000610f5282610f6b565b9050919050565b6000610f6482610f6b565b9050919050565b600073ffffffffffffffffffffffffffffffffffffffff82169050919050565b6000819050919050565b6000610fa082610f8b565b9050919050565b82818337600083830152505050565b60005b83811015610fd4578082015181840152602081019050610fb9565b83811115610fe3576000848401525b50505050565b6000600282049050600182168061100157607f821691505b60208210811415611015576110146110c4565b5b50919050565b61102482611122565b810181811067ffffffffffffffff82111715611043576110426110f3565b5b80604052505050565b600061105782610f8b565b91507fffffffffffffffffffffffffffffffffffffffffffffffffffffffffffffffff82141561108a57611089611095565b5b600182019050919050565b7f4e487b7100000000000000000000000000000000000000000000000000000000600052601160045260246000fd5b7f4e487b7100000000000000000000000000000000000000000000000000000000600052602260045260246000fd5b7f4e487b7100000000000000000000000000000000000000000000000000000000600052604160045260246000fd5b6000601f19601f8301169050919050565b61113c81610f8b565b811461114757600080fd5b5056fea2646970667358221220252c2916567a807f472a6652eec6700581f29ed3555beb92ccbbaf215a16022064736f6c63430008040033",
          "opcodes": "PUSH1 0x80 PUSH1 0x40 MSTORE CALLVALUE DUP1 ISZERO PUSH2 0x10 JUMPI PUSH1 0x0 DUP1 REVERT JUMPDEST POP PUSH2 0x1180 DUP1 PUSH2 0x20 PUSH1 0x0 CODECOPY PUSH1 0x0 RETURN INVALID PUSH1 0x80 PUSH1 0x40 MSTORE PUSH1 0x4 CALLDATASIZE LT PUSH2 0x4A JUMPI PUSH1 0x0 CALLDATALOAD PUSH1 0xE0 SHR DUP1 PUSH4 0x650F4909 EQ PUSH2 0x4F JUMPI DUP1 PUSH4 0x710DB71B EQ PUSH2 0x7A JUMPI DUP1 PUSH4 0x7A41FDE2 EQ PUSH2 0x96 JUMPI DUP1 PUSH4 0x80313552 EQ PUSH2 0xB2 JUMPI DUP1 PUSH4 0x9FF95399 EQ PUSH2 0xDD JUMPI JUMPDEST PUSH1 0x0 DUP1 REVERT JUMPDEST CALLVALUE DUP1 ISZERO PUSH2 0x5B JUMPI PUSH1 0x0 DUP1 REVERT JUMPDEST POP PUSH2 0x64 PUSH2 0x106 JUMP JUMPDEST PUSH1 0x40 MLOAD PUSH2 0x71 SWAP2 SWAP1 PUSH2 0xE69 JUMP JUMPDEST PUSH1 0x40 MLOAD DUP1 SWAP2 SUB SWAP1 RETURN JUMPDEST PUSH2 0x94 PUSH1 0x4 DUP1 CALLDATASIZE SUB DUP2 ADD SWAP1 PUSH2 0x8F SWAP2 SWAP1 PUSH2 0xB51 JUMP JUMPDEST PUSH2 0x3C0 JUMP JUMPDEST STOP JUMPDEST PUSH2 0xB0 PUSH1 0x4 DUP1 CALLDATASIZE SUB DUP2 ADD SWAP1 PUSH2 0xAB SWAP2 SWAP1 PUSH2 0xABA JUMP JUMPDEST PUSH2 0x440 JUMP JUMPDEST STOP JUMPDEST CALLVALUE DUP1 ISZERO PUSH2 0xBE JUMPI PUSH1 0x0 DUP1 REVERT JUMPDEST POP PUSH2 0xC7 PUSH2 0x5AB JUMP JUMPDEST PUSH1 0x40 MLOAD PUSH2 0xD4 SWAP2 SWAP1 PUSH2 0xE47 JUMP JUMPDEST PUSH1 0x40 MLOAD DUP1 SWAP2 SUB SWAP1 RETURN JUMPDEST CALLVALUE DUP1 ISZERO PUSH2 0xE9 JUMPI PUSH1 0x0 DUP1 REVERT JUMPDEST POP PUSH2 0x104 PUSH1 0x4 DUP1 CALLDATASIZE SUB DUP2 ADD SWAP1 PUSH2 0xFF SWAP2 SWAP1 PUSH2 0xB51 JUMP JUMPDEST PUSH2 0x8FB JUMP JUMPDEST STOP JUMPDEST PUSH2 0x10E PUSH2 0x94E JUMP JUMPDEST PUSH1 0x0 DUP1 PUSH1 0x1 SWAP1 POP PUSH1 0x0 PUSH1 0x1 SWAP1 POP JUMPDEST PUSH2 0x126 PUSH1 0x0 PUSH2 0x92A JUMP JUMPDEST DUP2 GT PUSH2 0x17A JUMPI DUP3 PUSH1 0x1 PUSH1 0x0 DUP4 DUP2 MSTORE PUSH1 0x20 ADD SWAP1 DUP2 MSTORE PUSH1 0x20 ADD PUSH1 0x0 KECCAK256 PUSH1 0x5 ADD SLOAD GT ISZERO PUSH2 0x167 JUMPI PUSH1 0x1 PUSH1 0x0 DUP3 DUP2 MSTORE PUSH1 0x20 ADD SWAP1 DUP2 MSTORE PUSH1 0x20 ADD PUSH1 0x0 KECCAK256 PUSH1 0x5 ADD SLOAD SWAP3 POP DUP1 SWAP2 POP JUMPDEST DUP1 DUP1 PUSH2 0x172 SWAP1 PUSH2 0x104C JUMP JUMPDEST SWAP2 POP POP PUSH2 0x11C JUMP JUMPDEST POP PUSH1 0x1 PUSH1 0x0 DUP3 DUP2 MSTORE PUSH1 0x20 ADD SWAP1 DUP2 MSTORE PUSH1 0x20 ADD PUSH1 0x0 KECCAK256 PUSH1 0x40 MLOAD DUP1 PUSH1 0xC0 ADD PUSH1 0x40 MSTORE SWAP1 DUP2 PUSH1 0x0 DUP3 ADD SLOAD DUP2 MSTORE PUSH1 0x20 ADD PUSH1 0x1 DUP3 ADD PUSH1 0x0 SWAP1 SLOAD SWAP1 PUSH2 0x100 EXP SWAP1 DIV PUSH20 0xFFFFFFFFFFFFFFFFFFFFFFFFFFFFFFFFFFFFFFFF AND PUSH20 0xFFFFFFFFFFFFFFFFFFFFFFFFFFFFFFFFFFFFFFFF AND PUSH20 0xFFFFFFFFFFFFFFFFFFFFFFFFFFFFFFFFFFFFFFFF AND DUP2 MSTORE PUSH1 0x20 ADD PUSH1 0x2 DUP3 ADD DUP1 SLOAD PUSH2 0x209 SWAP1 PUSH2 0xFE9 JUMP JUMPDEST DUP1 PUSH1 0x1F ADD PUSH1 0x20 DUP1 SWAP2 DIV MUL PUSH1 0x20 ADD PUSH1 0x40 MLOAD SWAP1 DUP2 ADD PUSH1 0x40 MSTORE DUP1 SWAP3 SWAP2 SWAP1 DUP2 DUP2 MSTORE PUSH1 0x20 ADD DUP3 DUP1 SLOAD PUSH2 0x235 SWAP1 PUSH2 0xFE9 JUMP JUMPDEST DUP1 ISZERO PUSH2 0x282 JUMPI DUP1 PUSH1 0x1F LT PUSH2 0x257 JUMPI PUSH2 0x100 DUP1 DUP4 SLOAD DIV MUL DUP4 MSTORE SWAP2 PUSH1 0x20 ADD SWAP2 PUSH2 0x282 JUMP JUMPDEST DUP3 ADD SWAP2 SWAP1 PUSH1 0x0 MSTORE PUSH1 0x20 PUSH1 0x0 KECCAK256 SWAP1 JUMPDEST DUP2 SLOAD DUP2 MSTORE SWAP1 PUSH1 0x1 ADD SWAP1 PUSH1 0x20 ADD DUP1 DUP4 GT PUSH2 0x265 JUMPI DUP3 SWAP1 SUB PUSH1 0x1F AND DUP3 ADD SWAP2 JUMPDEST POP POP POP POP POP DUP2 MSTORE PUSH1 0x20 ADD PUSH1 0x3 DUP3 ADD DUP1 SLOAD PUSH2 0x29B SWAP1 PUSH2 0xFE9 JUMP JUMPDEST DUP1 PUSH1 0x1F ADD PUSH1 0x20 DUP1 SWAP2 DIV MUL PUSH1 0x20 ADD PUSH1 0x40 MLOAD SWAP1 DUP2 ADD PUSH1 0x40 MSTORE DUP1 SWAP3 SWAP2 SWAP1 DUP2 DUP2 MSTORE PUSH1 0x20 ADD DUP3 DUP1 SLOAD PUSH2 0x2C7 SWAP1 PUSH2 0xFE9 JUMP JUMPDEST DUP1 ISZERO PUSH2 0x314 JUMPI DUP1 PUSH1 0x1F LT PUSH2 0x2E9 JUMPI PUSH2 0x100 DUP1 DUP4 SLOAD DIV MUL DUP4 MSTORE SWAP2 PUSH1 0x20 ADD SWAP2 PUSH2 0x314 JUMP JUMPDEST DUP3 ADD SWAP2 SWAP1 PUSH1 0x0 MSTORE PUSH1 0x20 PUSH1 0x0 KECCAK256 SWAP1 JUMPDEST DUP2 SLOAD DUP2 MSTORE SWAP1 PUSH1 0x1 ADD SWAP1 PUSH1 0x20 ADD DUP1 DUP4 GT PUSH2 0x2F7 JUMPI DUP3 SWAP1 SUB PUSH1 0x1F AND DUP3 ADD SWAP2 JUMPDEST POP POP POP POP POP DUP2 MSTORE PUSH1 0x20 ADD PUSH1 0x4 DUP3 ADD DUP1 SLOAD PUSH2 0x32D SWAP1 PUSH2 0xFE9 JUMP JUMPDEST DUP1 PUSH1 0x1F ADD PUSH1 0x20 DUP1 SWAP2 DIV MUL PUSH1 0x20 ADD PUSH1 0x40 MLOAD SWAP1 DUP2 ADD PUSH1 0x40 MSTORE DUP1 SWAP3 SWAP2 SWAP1 DUP2 DUP2 MSTORE PUSH1 0x20 ADD DUP3 DUP1 SLOAD PUSH2 0x359 SWAP1 PUSH2 0xFE9 JUMP JUMPDEST DUP1 ISZERO PUSH2 0x3A6 JUMPI DUP1 PUSH1 0x1F LT PUSH2 0x37B JUMPI PUSH2 0x100 DUP1 DUP4 SLOAD DIV MUL DUP4 MSTORE SWAP2 PUSH1 0x20 ADD SWAP2 PUSH2 0x3A6 JUMP JUMPDEST DUP3 ADD SWAP2 SWAP1 PUSH1 0x0 MSTORE PUSH1 0x20 PUSH1 0x0 KECCAK256 SWAP1 JUMPDEST DUP2 SLOAD DUP2 MSTORE SWAP1 PUSH1 0x1 ADD SWAP1 PUSH1 0x20 ADD DUP1 DUP4 GT PUSH2 0x389 JUMPI DUP3 SWAP1 SUB PUSH1 0x1F AND DUP3 ADD SWAP2 JUMPDEST POP POP POP POP POP DUP2 MSTORE PUSH1 0x20 ADD PUSH1 0x5 DUP3 ADD SLOAD DUP2 MSTORE POP POP SWAP3 POP POP POP SWAP1 JUMP JUMPDEST PUSH1 0x1 PUSH1 0x0 DUP3 DUP2 MSTORE PUSH1 0x20 ADD SWAP1 DUP2 MSTORE PUSH1 0x20 ADD PUSH1 0x0 KECCAK256 PUSH1 0x1 ADD PUSH1 0x0 SWAP1 SLOAD SWAP1 PUSH2 0x100 EXP SWAP1 DIV PUSH20 0xFFFFFFFFFFFFFFFFFFFFFFFFFFFFFFFFFFFFFFFF AND PUSH20 0xFFFFFFFFFFFFFFFFFFFFFFFFFFFFFFFFFFFFFFFF AND PUSH2 0x8FC CALLVALUE SWAP1 DUP2 ISZERO MUL SWAP1 PUSH1 0x40 MLOAD PUSH1 0x0 PUSH1 0x40 MLOAD DUP1 DUP4 SUB DUP2 DUP6 DUP9 DUP9 CALL SWAP4 POP POP POP POP ISZERO DUP1 ISZERO PUSH2 0x43C JUMPI RETURNDATASIZE PUSH1 0x0 DUP1 RETURNDATACOPY RETURNDATASIZE PUSH1 0x0 REVERT JUMPDEST POP POP JUMP JUMPDEST PUSH2 0x44A PUSH1 0x0 PUSH2 0x938 JUMP JUMPDEST PUSH1 0x0 PUSH2 0x456 PUSH1 0x0 PUSH2 0x92A JUMP JUMPDEST SWAP1 POP PUSH1 0x40 MLOAD DUP1 PUSH1 0xC0 ADD PUSH1 0x40 MSTORE DUP1 DUP3 DUP2 MSTORE PUSH1 0x20 ADD CALLER PUSH20 0xFFFFFFFFFFFFFFFFFFFFFFFFFFFFFFFFFFFFFFFF AND DUP2 MSTORE PUSH1 0x20 ADD DUP6 DUP2 MSTORE PUSH1 0x20 ADD DUP5 DUP2 MSTORE PUSH1 0x20 ADD DUP4 DUP2 MSTORE PUSH1 0x20 ADD PUSH1 0x0 DUP2 MSTORE POP PUSH1 0x1 PUSH1 0x0 DUP4 DUP2 MSTORE PUSH1 0x20 ADD SWAP1 DUP2 MSTORE PUSH1 0x20 ADD PUSH1 0x0 KECCAK256 PUSH1 0x0 DUP3 ADD MLOAD DUP2 PUSH1 0x0 ADD SSTORE PUSH1 0x20 DUP3 ADD MLOAD DUP2 PUSH1 0x1 ADD PUSH1 0x0 PUSH2 0x100 EXP DUP2 SLOAD DUP2 PUSH20 0xFFFFFFFFFFFFFFFFFFFFFFFFFFFFFFFFFFFFFFFF MUL NOT AND SWAP1 DUP4 PUSH20 0xFFFFFFFFFFFFFFFFFFFFFFFFFFFFFFFFFFFFFFFF AND MUL OR SWAP1 SSTORE POP PUSH1 0x40 DUP3 ADD MLOAD DUP2 PUSH1 0x2 ADD SWAP1 DUP1 MLOAD SWAP1 PUSH1 0x20 ADD SWAP1 PUSH2 0x51C SWAP3 SWAP2 SWAP1 PUSH2 0x99A JUMP JUMPDEST POP PUSH1 0x60 DUP3 ADD MLOAD DUP2 PUSH1 0x3 ADD SWAP1 DUP1 MLOAD SWAP1 PUSH1 0x20 ADD SWAP1 PUSH2 0x539 SWAP3 SWAP2 SWAP1 PUSH2 0x99A JUMP JUMPDEST POP PUSH1 0x80 DUP3 ADD MLOAD DUP2 PUSH1 0x4 ADD SWAP1 DUP1 MLOAD SWAP1 PUSH1 0x20 ADD SWAP1 PUSH2 0x556 SWAP3 SWAP2 SWAP1 PUSH2 0x99A JUMP JUMPDEST POP PUSH1 0xA0 DUP3 ADD MLOAD DUP2 PUSH1 0x5 ADD SSTORE SWAP1 POP POP DUP1 PUSH32 0x7E2DF7F1D6D80D00EF34EF2F5B47D103316C62852A9018C9FC7EC3350B0EBEF7 CALLER DUP7 DUP7 DUP7 PUSH1 0x0 PUSH1 0x40 MLOAD PUSH2 0x59D SWAP6 SWAP5 SWAP4 SWAP3 SWAP2 SWAP1 PUSH2 0xDDF JUMP JUMPDEST PUSH1 0x40 MLOAD DUP1 SWAP2 SUB SWAP1 LOG2 POP POP POP POP JUMP JUMPDEST PUSH1 0x60 PUSH1 0x0 DUP1 PUSH2 0x5BA PUSH1 0x0 PUSH2 0x92A JUMP JUMPDEST SWAP1 POP PUSH1 0x0 DUP2 PUSH8 0xFFFFFFFFFFFFFFFF DUP2 GT ISZERO PUSH2 0x5FE JUMPI PUSH32 0x4E487B7100000000000000000000000000000000000000000000000000000000 PUSH1 0x0 MSTORE PUSH1 0x41 PUSH1 0x4 MSTORE PUSH1 0x24 PUSH1 0x0 REVERT JUMPDEST PUSH1 0x40 MLOAD SWAP1 DUP1 DUP3 MSTORE DUP1 PUSH1 0x20 MUL PUSH1 0x20 ADD DUP3 ADD PUSH1 0x40 MSTORE DUP1 ISZERO PUSH2 0x637 JUMPI DUP2 PUSH1 0x20 ADD JUMPDEST PUSH2 0x624 PUSH2 0x94E JUMP JUMPDEST DUP2 MSTORE PUSH1 0x20 ADD SWAP1 PUSH1 0x1 SWAP1 SUB SWAP1 DUP2 PUSH2 0x61C JUMPI SWAP1 POP JUMPDEST POP SWAP1 POP PUSH1 0x0 PUSH1 0x1 SWAP1 POP JUMPDEST DUP3 DUP2 GT PUSH2 0x8F1 JUMPI PUSH1 0x0 PUSH1 0x1 PUSH1 0x0 DUP4 DUP2 MSTORE PUSH1 0x20 ADD SWAP1 DUP2 MSTORE PUSH1 0x20 ADD PUSH1 0x0 KECCAK256 SWAP1 POP DUP1 PUSH1 0x40 MLOAD DUP1 PUSH1 0xC0 ADD PUSH1 0x40 MSTORE SWAP1 DUP2 PUSH1 0x0 DUP3 ADD SLOAD DUP2 MSTORE PUSH1 0x20 ADD PUSH1 0x1 DUP3 ADD PUSH1 0x0 SWAP1 SLOAD SWAP1 PUSH2 0x100 EXP SWAP1 DIV PUSH20 0xFFFFFFFFFFFFFFFFFFFFFFFFFFFFFFFFFFFFFFFF AND PUSH20 0xFFFFFFFFFFFFFFFFFFFFFFFFFFFFFFFFFFFFFFFF AND PUSH20 0xFFFFFFFFFFFFFFFFFFFFFFFFFFFFFFFFFFFFFFFF AND DUP2 MSTORE PUSH1 0x20 ADD PUSH1 0x2 DUP3 ADD DUP1 SLOAD PUSH2 0x6DB SWAP1 PUSH2 0xFE9 JUMP JUMPDEST DUP1 PUSH1 0x1F ADD PUSH1 0x20 DUP1 SWAP2 DIV MUL PUSH1 0x20 ADD PUSH1 0x40 MLOAD SWAP1 DUP2 ADD PUSH1 0x40 MSTORE DUP1 SWAP3 SWAP2 SWAP1 DUP2 DUP2 MSTORE PUSH1 0x20 ADD DUP3 DUP1 SLOAD PUSH2 0x707 SWAP1 PUSH2 0xFE9 JUMP JUMPDEST DUP1 ISZERO PUSH2 0x754 JUMPI DUP1 PUSH1 0x1F LT PUSH2 0x729 JUMPI PUSH2 0x100 DUP1 DUP4 SLOAD DIV MUL DUP4 MSTORE SWAP2 PUSH1 0x20 ADD SWAP2 PUSH2 0x754 JUMP JUMPDEST DUP3 ADD SWAP2 SWAP1 PUSH1 0x0 MSTORE PUSH1 0x20 PUSH1 0x0 KECCAK256 SWAP1 JUMPDEST DUP2 SLOAD DUP2 MSTORE SWAP1 PUSH1 0x1 ADD SWAP1 PUSH1 0x20 ADD DUP1 DUP4 GT PUSH2 0x737 JUMPI DUP3 SWAP1 SUB PUSH1 0x1F AND DUP3 ADD SWAP2 JUMPDEST POP POP POP POP POP DUP2 MSTORE PUSH1 0x20 ADD PUSH1 0x3 DUP3 ADD DUP1 SLOAD PUSH2 0x76D SWAP1 PUSH2 0xFE9 JUMP JUMPDEST DUP1 PUSH1 0x1F ADD PUSH1 0x20 DUP1 SWAP2 DIV MUL PUSH1 0x20 ADD PUSH1 0x40 MLOAD SWAP1 DUP2 ADD PUSH1 0x40 MSTORE DUP1 SWAP3 SWAP2 SWAP1 DUP2 DUP2 MSTORE PUSH1 0x20 ADD DUP3 DUP1 SLOAD PUSH2 0x799 SWAP1 PUSH2 0xFE9 JUMP JUMPDEST DUP1 ISZERO PUSH2 0x7E6 JUMPI DUP1 PUSH1 0x1F LT PUSH2 0x7BB JUMPI PUSH2 0x100 DUP1 DUP4 SLOAD DIV MUL DUP4 MSTORE SWAP2 PUSH1 0x20 ADD SWAP2 PUSH2 0x7E6 JUMP JUMPDEST DUP3 ADD SWAP2 SWAP1 PUSH1 0x0 MSTORE PUSH1 0x20 PUSH1 0x0 KECCAK256 SWAP1 JUMPDEST DUP2 SLOAD DUP2 MSTORE SWAP1 PUSH1 0x1 ADD SWAP1 PUSH1 0x20 ADD DUP1 DUP4 GT PUSH2 0x7C9 JUMPI DUP3 SWAP1 SUB PUSH1 0x1F AND DUP3 ADD SWAP2 JUMPDEST POP POP POP POP POP DUP2 MSTORE PUSH1 0x20 ADD PUSH1 0x4 DUP3 ADD DUP1 SLOAD PUSH2 0x7FF SWAP1 PUSH2 0xFE9 JUMP JUMPDEST DUP1 PUSH1 0x1F ADD PUSH1 0x20 DUP1 SWAP2 DIV MUL PUSH1 0x20 ADD PUSH1 0x40 MLOAD SWAP1 DUP2 ADD PUSH1 0x40 MSTORE DUP1 SWAP3 SWAP2 SWAP1 DUP2 DUP2 MSTORE PUSH1 0x20 ADD DUP3 DUP1 SLOAD PUSH2 0x82B SWAP1 PUSH2 0xFE9 JUMP JUMPDEST DUP1 ISZERO PUSH2 0x878 JUMPI DUP1 PUSH1 0x1F LT PUSH2 0x84D JUMPI PUSH2 0x100 DUP1 DUP4 SLOAD DIV MUL DUP4 MSTORE SWAP2 PUSH1 0x20 ADD SWAP2 PUSH2 0x878 JUMP JUMPDEST DUP3 ADD SWAP2 SWAP1 PUSH1 0x0 MSTORE PUSH1 0x20 PUSH1 0x0 KECCAK256 SWAP1 JUMPDEST DUP2 SLOAD DUP2 MSTORE SWAP1 PUSH1 0x1 ADD SWAP1 PUSH1 0x20 ADD DUP1 DUP4 GT PUSH2 0x85B JUMPI DUP3 SWAP1 SUB PUSH1 0x1F AND DUP3 ADD SWAP2 JUMPDEST POP POP POP POP POP DUP2 MSTORE PUSH1 0x20 ADD PUSH1 0x5 DUP3 ADD SLOAD DUP2 MSTORE POP POP DUP4 DUP7 DUP2 MLOAD DUP2 LT PUSH2 0x8C4 JUMPI PUSH32 0x4E487B7100000000000000000000000000000000000000000000000000000000 PUSH1 0x0 MSTORE PUSH1 0x32 PUSH1 0x4 MSTORE PUSH1 0x24 PUSH1 0x0 REVERT JUMPDEST PUSH1 0x20 MUL PUSH1 0x20 ADD ADD DUP2 SWAP1 MSTORE POP DUP5 DUP1 PUSH2 0x8DA SWAP1 PUSH2 0x104C JUMP JUMPDEST SWAP6 POP POP POP DUP1 DUP1 PUSH2 0x8E9 SWAP1 PUSH2 0x104C JUMP JUMPDEST SWAP2 POP POP PUSH2 0x641 JUMP JUMPDEST POP DUP1 SWAP4 POP POP POP POP SWAP1 JUMP JUMPDEST PUSH1 0x1 PUSH1 0x0 DUP3 DUP2 MSTORE PUSH1 0x20 ADD SWAP1 DUP2 MSTORE PUSH1 0x20 ADD PUSH1 0x0 KECCAK256 PUSH1 0x5 ADD PUSH1 0x0 DUP2 SLOAD DUP1 SWAP3 SWAP2 SWAP1 PUSH2 0x922 SWAP1 PUSH2 0x104C JUMP JUMPDEST SWAP2 SWAP1 POP SSTORE POP POP JUMP JUMPDEST PUSH1 0x0 DUP2 PUSH1 0x0 ADD SLOAD SWAP1 POP SWAP2 SWAP1 POP JUMP JUMPDEST PUSH1 0x1 DUP2 PUSH1 0x0 ADD PUSH1 0x0 DUP3 DUP3 SLOAD ADD SWAP3 POP POP DUP2 SWAP1 SSTORE POP POP JUMP JUMPDEST PUSH1 0x40 MLOAD DUP1 PUSH1 0xC0 ADD PUSH1 0x40 MSTORE DUP1 PUSH1 0x0 DUP2 MSTORE PUSH1 0x20 ADD PUSH1 0x0 PUSH20 0xFFFFFFFFFFFFFFFFFFFFFFFFFFFFFFFFFFFFFFFF AND DUP2 MSTORE PUSH1 0x20 ADD PUSH1 0x60 DUP2 MSTORE PUSH1 0x20 ADD PUSH1 0x60 DUP2 MSTORE PUSH1 0x20 ADD PUSH1 0x60 DUP2 MSTORE PUSH1 0x20 ADD PUSH1 0x0 DUP2 MSTORE POP SWAP1 JUMP JUMPDEST DUP3 DUP1 SLOAD PUSH2 0x9A6 SWAP1 PUSH2 0xFE9 JUMP JUMPDEST SWAP1 PUSH1 0x0 MSTORE PUSH1 0x20 PUSH1 0x0 KECCAK256 SWAP1 PUSH1 0x1F ADD PUSH1 0x20 SWAP1 DIV DUP2 ADD SWAP3 DUP3 PUSH2 0x9C8 JUMPI PUSH1 0x0 DUP6 SSTORE PUSH2 0xA0F JUMP JUMPDEST DUP3 PUSH1 0x1F LT PUSH2 0x9E1 JUMPI DUP1 MLOAD PUSH1 0xFF NOT AND DUP4 DUP1 ADD OR DUP6 SSTORE PUSH2 0xA0F JUMP JUMPDEST DUP3 DUP1 ADD PUSH1 0x1 ADD DUP6 SSTORE DUP3 ISZERO PUSH2 0xA0F JUMPI SWAP2 DUP3 ADD JUMPDEST DUP3 DUP2 GT ISZERO PUSH2 0xA0E JUMPI DUP3 MLOAD DUP3 SSTORE SWAP2 PUSH1 0x20 ADD SWAP2 SWAP1 PUSH1 0x1 ADD SWAP1 PUSH2 0x9F3 JUMP JUMPDEST JUMPDEST POP SWAP1 POP PUSH2 0xA1C SWAP2 SWAP1 PUSH2 0xA20 JUMP JUMPDEST POP SWAP1 JUMP JUMPDEST JUMPDEST DUP1 DUP3 GT ISZERO PUSH2 0xA39 JUMPI PUSH1 0x0 DUP2 PUSH1 0x0 SWAP1 SSTORE POP PUSH1 0x1 ADD PUSH2 0xA21 JUMP JUMPDEST POP SWAP1 JUMP JUMPDEST PUSH1 0x0 PUSH2 0xA50 PUSH2 0xA4B DUP5 PUSH2 0xEB0 JUMP JUMPDEST PUSH2 0xE8B JUMP JUMPDEST SWAP1 POP DUP3 DUP2 MSTORE PUSH1 0x20 DUP2 ADD DUP5 DUP5 DUP5 ADD GT ISZERO PUSH2 0xA68 JUMPI PUSH1 0x0 DUP1 REVERT JUMPDEST PUSH2 0xA73 DUP5 DUP3 DUP6 PUSH2 0xFA7 JUMP JUMPDEST POP SWAP4 SWAP3 POP POP POP JUMP JUMPDEST PUSH1 0x0 DUP3 PUSH1 0x1F DUP4 ADD SLT PUSH2 0xA8C JUMPI PUSH1 0x0 DUP1 REVERT JUMPDEST DUP2 CALLDATALOAD PUSH2 0xA9C DUP5 DUP3 PUSH1 0x20 DUP7 ADD PUSH2 0xA3D JUMP JUMPDEST SWAP2 POP POP SWAP3 SWAP2 POP POP JUMP JUMPDEST PUSH1 0x0 DUP2 CALLDATALOAD SWAP1 POP PUSH2 0xAB4 DUP2 PUSH2 0x1133 JUMP JUMPDEST SWAP3 SWAP2 POP POP JUMP JUMPDEST PUSH1 0x0 DUP1 PUSH1 0x0 PUSH1 0x60 DUP5 DUP7 SUB SLT ISZERO PUSH2 0xACF JUMPI PUSH1 0x0 DUP1 REVERT JUMPDEST PUSH1 0x0 DUP5 ADD CALLDATALOAD PUSH8 0xFFFFFFFFFFFFFFFF DUP2 GT ISZERO PUSH2 0xAE9 JUMPI PUSH1 0x0 DUP1 REVERT JUMPDEST PUSH2 0xAF5 DUP7 DUP3 DUP8 ADD PUSH2 0xA7B JUMP JUMPDEST SWAP4 POP POP PUSH1 0x20 DUP5 ADD CALLDATALOAD PUSH8 0xFFFFFFFFFFFFFFFF DUP2 GT ISZERO PUSH2 0xB12 JUMPI PUSH1 0x0 DUP1 REVERT JUMPDEST PUSH2 0xB1E DUP7 DUP3 DUP8 ADD PUSH2 0xA7B JUMP JUMPDEST SWAP3 POP POP PUSH1 0x40 DUP5 ADD CALLDATALOAD PUSH8 0xFFFFFFFFFFFFFFFF DUP2 GT ISZERO PUSH2 0xB3B JUMPI PUSH1 0x0 DUP1 REVERT JUMPDEST PUSH2 0xB47 DUP7 DUP3 DUP8 ADD PUSH2 0xA7B JUMP JUMPDEST SWAP2 POP POP SWAP3 POP SWAP3 POP SWAP3 JUMP JUMPDEST PUSH1 0x0 PUSH1 0x20 DUP3 DUP5 SUB SLT ISZERO PUSH2 0xB63 JUMPI PUSH1 0x0 DUP1 REVERT JUMPDEST PUSH1 0x0 PUSH2 0xB71 DUP5 DUP3 DUP6 ADD PUSH2 0xAA5 JUMP JUMPDEST SWAP2 POP POP SWAP3 SWAP2 POP POP JUMP JUMPDEST PUSH1 0x0 PUSH2 0xB86 DUP4 DUP4 PUSH2 0xCA2 JUMP JUMPDEST SWAP1 POP SWAP3 SWAP2 POP POP JUMP JUMPDEST PUSH2 0xB97 DUP2 PUSH2 0xF59 JUMP JUMPDEST DUP3 MSTORE POP POP JUMP JUMPDEST PUSH2 0xBA6 DUP2 PUSH2 0xF47 JUMP JUMPDEST DUP3 MSTORE POP POP JUMP JUMPDEST PUSH1 0x0 PUSH2 0xBB7 DUP3 PUSH2 0xEF1 JUMP JUMPDEST PUSH2 0xBC1 DUP2 DUP6 PUSH2 0xF14 JUMP JUMPDEST SWAP4 POP DUP4 PUSH1 0x20 DUP3 MUL DUP6 ADD PUSH2 0xBD3 DUP6 PUSH2 0xEE1 JUMP JUMPDEST DUP1 PUSH1 0x0 JUMPDEST DUP6 DUP2 LT ISZERO PUSH2 0xC0F JUMPI DUP5 DUP5 SUB DUP10 MSTORE DUP2 MLOAD PUSH2 0xBF0 DUP6 DUP3 PUSH2 0xB7A JUMP JUMPDEST SWAP5 POP PUSH2 0xBFB DUP4 PUSH2 0xF07 JUMP JUMPDEST SWAP3 POP PUSH1 0x20 DUP11 ADD SWAP10 POP POP PUSH1 0x1 DUP2 ADD SWAP1 POP PUSH2 0xBD7 JUMP JUMPDEST POP DUP3 SWAP8 POP DUP8 SWAP6 POP POP POP POP POP POP SWAP3 SWAP2 POP POP JUMP JUMPDEST PUSH2 0xC2A DUP2 PUSH2 0xF95 JUMP JUMPDEST DUP3 MSTORE POP POP JUMP JUMPDEST PUSH1 0x0 PUSH2 0xC3B DUP3 PUSH2 0xEFC JUMP JUMPDEST PUSH2 0xC45 DUP2 DUP6 PUSH2 0xF25 JUMP JUMPDEST SWAP4 POP PUSH2 0xC55 DUP2 DUP6 PUSH1 0x20 DUP7 ADD PUSH2 0xFB6 JUMP JUMPDEST PUSH2 0xC5E DUP2 PUSH2 0x1122 JUMP JUMPDEST DUP5 ADD SWAP2 POP POP SWAP3 SWAP2 POP POP JUMP JUMPDEST PUSH1 0x0 PUSH2 0xC74 DUP3 PUSH2 0xEFC JUMP JUMPDEST PUSH2 0xC7E DUP2 DUP6 PUSH2 0xF36 JUMP JUMPDEST SWAP4 POP PUSH2 0xC8E DUP2 DUP6 PUSH1 0x20 DUP7 ADD PUSH2 0xFB6 JUMP JUMPDEST PUSH2 0xC97 DUP2 PUSH2 0x1122 JUMP JUMPDEST DUP5 ADD SWAP2 POP POP SWAP3 SWAP2 POP POP JUMP JUMPDEST PUSH1 0x0 PUSH1 0xC0 DUP4 ADD PUSH1 0x0 DUP4 ADD MLOAD PUSH2 0xCBA PUSH1 0x0 DUP7 ADD DUP3 PUSH2 0xDD0 JUMP JUMPDEST POP PUSH1 0x20 DUP4 ADD MLOAD PUSH2 0xCCD PUSH1 0x20 DUP7 ADD DUP3 PUSH2 0xB8E JUMP JUMPDEST POP PUSH1 0x40 DUP4 ADD MLOAD DUP5 DUP3 SUB PUSH1 0x40 DUP7 ADD MSTORE PUSH2 0xCE5 DUP3 DUP3 PUSH2 0xC30 JUMP JUMPDEST SWAP2 POP POP PUSH1 0x60 DUP4 ADD MLOAD DUP5 DUP3 SUB PUSH1 0x60 DUP7 ADD MSTORE PUSH2 0xCFF DUP3 DUP3 PUSH2 0xC30 JUMP JUMPDEST SWAP2 POP POP PUSH1 0x80 DUP4 ADD MLOAD DUP5 DUP3 SUB PUSH1 0x80 DUP7 ADD MSTORE PUSH2 0xD19 DUP3 DUP3 PUSH2 0xC30 JUMP JUMPDEST SWAP2 POP POP PUSH1 0xA0 DUP4 ADD MLOAD PUSH2 0xD2E PUSH1 0xA0 DUP7 ADD DUP3 PUSH2 0xDD0 JUMP JUMPDEST POP DUP1 SWAP2 POP POP SWAP3 SWAP2 POP POP JUMP JUMPDEST PUSH1 0x0 PUSH1 0xC0 DUP4 ADD PUSH1 0x0 DUP4 ADD MLOAD PUSH2 0xD51 PUSH1 0x0 DUP7 ADD DUP3 PUSH2 0xDD0 JUMP JUMPDEST POP PUSH1 0x20 DUP4 ADD MLOAD PUSH2 0xD64 PUSH1 0x20 DUP7 ADD DUP3 PUSH2 0xB8E JUMP JUMPDEST POP PUSH1 0x40 DUP4 ADD MLOAD DUP5 DUP3 SUB PUSH1 0x40 DUP7 ADD MSTORE PUSH2 0xD7C DUP3 DUP3 PUSH2 0xC30 JUMP JUMPDEST SWAP2 POP POP PUSH1 0x60 DUP4 ADD MLOAD DUP5 DUP3 SUB PUSH1 0x60 DUP7 ADD MSTORE PUSH2 0xD96 DUP3 DUP3 PUSH2 0xC30 JUMP JUMPDEST SWAP2 POP POP PUSH1 0x80 DUP4 ADD MLOAD DUP5 DUP3 SUB PUSH1 0x80 DUP7 ADD MSTORE PUSH2 0xDB0 DUP3 DUP3 PUSH2 0xC30 JUMP JUMPDEST SWAP2 POP POP PUSH1 0xA0 DUP4 ADD MLOAD PUSH2 0xDC5 PUSH1 0xA0 DUP7 ADD DUP3 PUSH2 0xDD0 JUMP JUMPDEST POP DUP1 SWAP2 POP POP SWAP3 SWAP2 POP POP JUMP JUMPDEST PUSH2 0xDD9 DUP2 PUSH2 0xF8B JUMP JUMPDEST DUP3 MSTORE POP POP JUMP JUMPDEST PUSH1 0x0 PUSH1 0xA0 DUP3 ADD SWAP1 POP PUSH2 0xDF4 PUSH1 0x0 DUP4 ADD DUP9 PUSH2 0xB9D JUMP JUMPDEST DUP2 DUP2 SUB PUSH1 0x20 DUP4 ADD MSTORE PUSH2 0xE06 DUP2 DUP8 PUSH2 0xC69 JUMP JUMPDEST SWAP1 POP DUP2 DUP2 SUB PUSH1 0x40 DUP4 ADD MSTORE PUSH2 0xE1A DUP2 DUP7 PUSH2 0xC69 JUMP JUMPDEST SWAP1 POP DUP2 DUP2 SUB PUSH1 0x60 DUP4 ADD MSTORE PUSH2 0xE2E DUP2 DUP6 PUSH2 0xC69 JUMP JUMPDEST SWAP1 POP PUSH2 0xE3D PUSH1 0x80 DUP4 ADD DUP5 PUSH2 0xC21 JUMP JUMPDEST SWAP7 SWAP6 POP POP POP POP POP POP JUMP JUMPDEST PUSH1 0x0 PUSH1 0x20 DUP3 ADD SWAP1 POP DUP2 DUP2 SUB PUSH1 0x0 DUP4 ADD MSTORE PUSH2 0xE61 DUP2 DUP5 PUSH2 0xBAC JUMP JUMPDEST SWAP1 POP SWAP3 SWAP2 POP POP JUMP JUMPDEST PUSH1 0x0 PUSH1 0x20 DUP3 ADD SWAP1 POP DUP2 DUP2 SUB PUSH1 0x0 DUP4 ADD MSTORE PUSH2 0xE83 DUP2 DUP5 PUSH2 0xD39 JUMP JUMPDEST SWAP1 POP SWAP3 SWAP2 POP POP JUMP JUMPDEST PUSH1 0x0 PUSH2 0xE95 PUSH2 0xEA6 JUMP JUMPDEST SWAP1 POP PUSH2 0xEA1 DUP3 DUP3 PUSH2 0x101B JUMP JUMPDEST SWAP2 SWAP1 POP JUMP JUMPDEST PUSH1 0x0 PUSH1 0x40 MLOAD SWAP1 POP SWAP1 JUMP JUMPDEST PUSH1 0x0 PUSH8 0xFFFFFFFFFFFFFFFF DUP3 GT ISZERO PUSH2 0xECB JUMPI PUSH2 0xECA PUSH2 0x10F3 JUMP JUMPDEST JUMPDEST PUSH2 0xED4 DUP3 PUSH2 0x1122 JUMP JUMPDEST SWAP1 POP PUSH1 0x20 DUP2 ADD SWAP1 POP SWAP2 SWAP1 POP JUMP JUMPDEST PUSH1 0x0 DUP2 SWAP1 POP PUSH1 0x20 DUP3 ADD SWAP1 POP SWAP2 SWAP1 POP JUMP JUMPDEST PUSH1 0x0 DUP2 MLOAD SWAP1 POP SWAP2 SWAP1 POP JUMP JUMPDEST PUSH1 0x0 DUP2 MLOAD SWAP1 POP SWAP2 SWAP1 POP JUMP JUMPDEST PUSH1 0x0 PUSH1 0x20 DUP3 ADD SWAP1 POP SWAP2 SWAP1 POP JUMP JUMPDEST PUSH1 0x0 DUP3 DUP3 MSTORE PUSH1 0x20 DUP3 ADD SWAP1 POP SWAP3 SWAP2 POP POP JUMP JUMPDEST PUSH1 0x0 DUP3 DUP3 MSTORE PUSH1 0x20 DUP3 ADD SWAP1 POP SWAP3 SWAP2 POP POP JUMP JUMPDEST PUSH1 0x0 DUP3 DUP3 MSTORE PUSH1 0x20 DUP3 ADD SWAP1 POP SWAP3 SWAP2 POP POP JUMP JUMPDEST PUSH1 0x0 PUSH2 0xF52 DUP3 PUSH2 0xF6B JUMP JUMPDEST SWAP1 POP SWAP2 SWAP1 POP JUMP JUMPDEST PUSH1 0x0 PUSH2 0xF64 DUP3 PUSH2 0xF6B JUMP JUMPDEST SWAP1 POP SWAP2 SWAP1 POP JUMP JUMPDEST PUSH1 0x0 PUSH20 0xFFFFFFFFFFFFFFFFFFFFFFFFFFFFFFFFFFFFFFFF DUP3 AND SWAP1 POP SWAP2 SWAP1 POP JUMP JUMPDEST PUSH1 0x0 DUP2 SWAP1 POP SWAP2 SWAP1 POP JUMP JUMPDEST PUSH1 0x0 PUSH2 0xFA0 DUP3 PUSH2 0xF8B JUMP JUMPDEST SWAP1 POP SWAP2 SWAP1 POP JUMP JUMPDEST DUP3 DUP2 DUP4 CALLDATACOPY PUSH1 0x0 DUP4 DUP4 ADD MSTORE POP POP POP JUMP JUMPDEST PUSH1 0x0 JUMPDEST DUP4 DUP2 LT ISZERO PUSH2 0xFD4 JUMPI DUP1 DUP3 ADD MLOAD DUP2 DUP5 ADD MSTORE PUSH1 0x20 DUP2 ADD SWAP1 POP PUSH2 0xFB9 JUMP JUMPDEST DUP4 DUP2 GT ISZERO PUSH2 0xFE3 JUMPI PUSH1 0x0 DUP5 DUP5 ADD MSTORE JUMPDEST POP POP POP POP JUMP JUMPDEST PUSH1 0x0 PUSH1 0x2 DUP3 DIV SWAP1 POP PUSH1 0x1 DUP3 AND DUP1 PUSH2 0x1001 JUMPI PUSH1 0x7F DUP3 AND SWAP2 POP JUMPDEST PUSH1 0x20 DUP3 LT DUP2 EQ ISZERO PUSH2 0x1015 JUMPI PUSH2 0x1014 PUSH2 0x10C4 JUMP JUMPDEST JUMPDEST POP SWAP2 SWAP1 POP JUMP JUMPDEST PUSH2 0x1024 DUP3 PUSH2 0x1122 JUMP JUMPDEST DUP2 ADD DUP2 DUP2 LT PUSH8 0xFFFFFFFFFFFFFFFF DUP3 GT OR ISZERO PUSH2 0x1043 JUMPI PUSH2 0x1042 PUSH2 0x10F3 JUMP JUMPDEST JUMPDEST DUP1 PUSH1 0x40 MSTORE POP POP POP JUMP JUMPDEST PUSH1 0x0 PUSH2 0x1057 DUP3 PUSH2 0xF8B JUMP JUMPDEST SWAP2 POP PUSH32 0xFFFFFFFFFFFFFFFFFFFFFFFFFFFFFFFFFFFFFFFFFFFFFFFFFFFFFFFFFFFFFFFF DUP3 EQ ISZERO PUSH2 0x108A JUMPI PUSH2 0x1089 PUSH2 0x1095 JUMP JUMPDEST JUMPDEST PUSH1 0x1 DUP3 ADD SWAP1 POP SWAP2 SWAP1 POP JUMP JUMPDEST PUSH32 0x4E487B7100000000000000000000000000000000000000000000000000000000 PUSH1 0x0 MSTORE PUSH1 0x11 PUSH1 0x4 MSTORE PUSH1 0x24 PUSH1 0x0 REVERT JUMPDEST PUSH32 0x4E487B7100000000000000000000000000000000000000000000000000000000 PUSH1 0x0 MSTORE PUSH1 0x22 PUSH1 0x4 MSTORE PUSH1 0x24 PUSH1 0x0 REVERT JUMPDEST PUSH32 0x4E487B7100000000000000000000000000000000000000000000000000000000 PUSH1 0x0 MSTORE PUSH1 0x41 PUSH1 0x4 MSTORE PUSH1 0x24 PUSH1 0x0 REVERT JUMPDEST PUSH1 0x0 PUSH1 0x1F NOT PUSH1 0x1F DUP4 ADD AND SWAP1 POP SWAP2 SWAP1 POP JUMP JUMPDEST PUSH2 0x113C DUP2 PUSH2 0xF8B JUMP JUMPDEST DUP2 EQ PUSH2 0x1147 JUMPI PUSH1 0x0 DUP1 REVERT JUMPDEST POP JUMP INVALID LOG2 PUSH5 0x6970667358 0x22 SLT KECCAK256 0x25 0x2C 0x29 AND JUMP PUSH27 0x807F472A6652EEC6700581F29ED3555BEB92CCBBAF215A16022064 PUSH20 0x6F6C634300080400330000000000000000000000 "
        },
        "methodIdentifiers": {
          "createNews(string,string,string)": "7a41fde2",
          "fetchNews()": "80313552",
          "increaseUpvote(uint256)": "9ff95399",
          "mostUpvote()": "650f4909",
          "transferSupport(uint256)": "710db71b"
        }
      }
    }
  }
}