{
  "_format": "hh-sol-artifact-1",
  "contractName": "NewsDapp",
  "sourceName": "contracts/NewsDapp.sol",
  "abi": [
    {
      "anonymous": false,
      "inputs": [
        {
          "indexed": true,
          "internalType": "uint256",
          "name": "tokenId",
          "type": "uint256"
        },
        {
          "indexed": false,
          "internalType": "address",
          "name": "author",
          "type": "address"
        },
        {
          "indexed": false,
          "internalType": "string",
          "name": "title",
          "type": "string"
        },
        {
          "indexed": false,
          "internalType": "string",
          "name": "content",
          "type": "string"
        },
        {
          "indexed": false,
          "internalType": "string",
          "name": "time",
          "type": "string"
        },
        {
          "indexed": false,
          "internalType": "uint256",
          "name": "upvote",
          "type": "uint256"
        }
      ],
      "name": "newsCreated",
      "type": "event"
    },
    {
      "inputs": [
        {
          "internalType": "string",
          "name": "_title",
          "type": "string"
        },
        {
          "internalType": "string",
          "name": "_content",
          "type": "string"
        },
        {
          "internalType": "string",
          "name": "_time",
          "type": "string"
        }
      ],
      "name": "createNews",
      "outputs": [],
      "stateMutability": "payable",
      "type": "function"
    },
    {
      "inputs": [],
      "name": "fetchNews",
      "outputs": [
        {
          "components": [
            {
              "internalType": "uint256",
              "name": "tokenId",
              "type": "uint256"
            },
            {
              "internalType": "address payable",
              "name": "author",
              "type": "address"
            },
            {
              "internalType": "string",
              "name": "title",
              "type": "string"
            },
            {
              "internalType": "string",
              "name": "content",
              "type": "string"
            },
            {
              "internalType": "string",
              "name": "time",
              "type": "string"
            },
            {
              "internalType": "uint256",
              "name": "upvote",
              "type": "uint256"
            }
          ],
          "internalType": "struct NewsDapp.news[]",
          "name": "",
          "type": "tuple[]"
        }
      ],
      "stateMutability": "view",
      "type": "function"
    },
    {
      "inputs": [
        {
          "internalType": "uint256",
          "name": "tokenId",
          "type": "uint256"
        }
      ],
      "name": "increaseUpvote",
      "outputs": [],
      "stateMutability": "nonpayable",
      "type": "function"
    },
    {
      "inputs": [],
      "name": "mostUpvote",
      "outputs": [
        {
          "components": [
            {
              "internalType": "uint256",
              "name": "tokenId",
              "type": "uint256"
            },
            {
              "internalType": "address payable",
              "name": "author",
              "type": "address"
            },
            {
              "internalType": "string",
              "name": "title",
              "type": "string"
            },
            {
              "internalType": "string",
              "name": "content",
              "type": "string"
            },
            {
              "internalType": "string",
              "name": "time",
              "type": "string"
            },
            {
              "internalType": "uint256",
              "name": "upvote",
              "type": "uint256"
            }
          ],
          "internalType": "struct NewsDapp.news",
          "name": "",
          "type": "tuple"
        }
      ],
      "stateMutability": "view",
      "type": "function"
    },
    {
      "inputs": [
        {
          "internalType": "uint256",
          "name": "tokenId",
          "type": "uint256"
        }
      ],
      "name": "transferSupport",
      "outputs": [],
      "stateMutability": "payable",
      "type": "function"
    }
  ],
  "bytecode": "0x608060405234801561001057600080fd5b50611180806100206000396000f3fe60806040526004361061004a5760003560e01c8063650f49091461004f578063710db71b1461007a5780637a41fde21461009657806380313552146100b25780639ff95399146100dd575b600080fd5b34801561005b57600080fd5b50610064610106565b6040516100719190610e69565b60405180910390f35b610094600480360381019061008f9190610b51565b6103c0565b005b6100b060048036038101906100ab9190610aba565b610440565b005b3480156100be57600080fd5b506100c76105ab565b6040516100d49190610e47565b60405180910390f35b3480156100e957600080fd5b5061010460048036038101906100ff9190610b51565b6108fb565b005b61010e61094e565b600080600190506000600190505b610126600061092a565b811161017a57826001600083815260200190815260200160002060050154111561016757600160008281526020019081526020016000206005015492508091505b80806101729061104c565b91505061011c565b50600160008281526020019081526020016000206040518060c0016040529081600082015481526020016001820160009054906101000a900473ffffffffffffffffffffffffffffffffffffffff1673ffffffffffffffffffffffffffffffffffffffff1673ffffffffffffffffffffffffffffffffffffffff16815260200160028201805461020990610fe9565b80601f016020809104026020016040519081016040528092919081815260200182805461023590610fe9565b80156102825780601f1061025757610100808354040283529160200191610282565b820191906000526020600020905b81548152906001019060200180831161026557829003601f168201915b5050505050815260200160038201805461029b90610fe9565b80601f01602080910402602001604051908101604052809291908181526020018280546102c790610fe9565b80156103145780601f106102e957610100808354040283529160200191610314565b820191906000526020600020905b8154815290600101906020018083116102f757829003601f168201915b5050505050815260200160048201805461032d90610fe9565b80601f016020809104026020016040519081016040528092919081815260200182805461035990610fe9565b80156103a65780601f1061037b576101008083540402835291602001916103a6565b820191906000526020600020905b81548152906001019060200180831161038957829003601f168201915b505050505081526020016005820154815250509250505090565b6001600082815260200190815260200160002060010160009054906101000a900473ffffffffffffffffffffffffffffffffffffffff1673ffffffffffffffffffffffffffffffffffffffff166108fc349081150290604051600060405180830381858888f1935050505015801561043c573d6000803e3d6000fd5b5050565b61044a6000610938565b6000610456600061092a565b90506040518060c001604052808281526020013373ffffffffffffffffffffffffffffffffffffffff1681526020018581526020018481526020018381526020016000815250600160008381526020019081526020016000206000820151816000015560208201518160010160006101000a81548173ffffffffffffffffffffffffffffffffffffffff021916908373ffffffffffffffffffffffffffffffffffffffff160217905550604082015181600201908051906020019061051c92919061099a565b50606082015181600301908051906020019061053992919061099a565b50608082015181600401908051906020019061055692919061099a565b5060a08201518160050155905050807f7e2df7f1d6d80d00ef34ef2f5b47d103316c62852a9018c9fc7ec3350b0ebef733868686600060405161059d959493929190610ddf565b60405180910390a250505050565b60606000806105ba600061092a565b905060008167ffffffffffffffff8111156105fe577f4e487b7100000000000000000000000000000000000000000000000000000000600052604160045260246000fd5b60405190808252806020026020018201604052801561063757816020015b61062461094e565b81526020019060019003908161061c5790505b5090506000600190505b8281116108f1576000600160008381526020019081526020016000209050806040518060c0016040529081600082015481526020016001820160009054906101000a900473ffffffffffffffffffffffffffffffffffffffff1673ffffffffffffffffffffffffffffffffffffffff1673ffffffffffffffffffffffffffffffffffffffff1681526020016002820180546106db90610fe9565b80601f016020809104026020016040519081016040528092919081815260200182805461070790610fe9565b80156107545780601f1061072957610100808354040283529160200191610754565b820191906000526020600020905b81548152906001019060200180831161073757829003601f168201915b5050505050815260200160038201805461076d90610fe9565b80601f016020809104026020016040519081016040528092919081815260200182805461079990610fe9565b80156107e65780601f106107bb576101008083540402835291602001916107e6565b820191906000526020600020905b8154815290600101906020018083116107c957829003601f168201915b505050505081526020016004820180546107ff90610fe9565b80601f016020809104026020016040519081016040528092919081815260200182805461082b90610fe9565b80156108785780601f1061084d57610100808354040283529160200191610878565b820191906000526020600020905b81548152906001019060200180831161085b57829003601f168201915b505050505081526020016005820154815250508386815181106108c4577f4e487b7100000000000000000000000000000000000000000000000000000000600052603260045260246000fd5b602002602001018190525084806108da9061104c565b9550505080806108e99061104c565b915050610641565b5080935050505090565b6001600082815260200190815260200160002060050160008154809291906109229061104c565b919050555050565b600081600001549050919050565b6001816000016000828254019250508190555050565b6040518060c0016040528060008152602001600073ffffffffffffffffffffffffffffffffffffffff168152602001606081526020016060815260200160608152602001600081525090565b8280546109a690610fe9565b90600052602060002090601f0160209004810192826109c85760008555610a0f565b82601f106109e157805160ff1916838001178555610a0f565b82800160010185558215610a0f579182015b82811115610a0e5782518255916020019190600101906109f3565b5b509050610a1c9190610a20565b5090565b5b80821115610a39576000816000905550600101610a21565b5090565b6000610a50610a4b84610eb0565b610e8b565b905082815260208101848484011115610a6857600080fd5b610a73848285610fa7565b509392505050565b600082601f830112610a8c57600080fd5b8135610a9c848260208601610a3d565b91505092915050565b600081359050610ab481611133565b92915050565b600080600060608486031215610acf57600080fd5b600084013567ffffffffffffffff811115610ae957600080fd5b610af586828701610a7b565b935050602084013567ffffffffffffffff811115610b1257600080fd5b610b1e86828701610a7b565b925050604084013567ffffffffffffffff811115610b3b57600080fd5b610b4786828701610a7b565b9150509250925092565b600060208284031215610b6357600080fd5b6000610b7184828501610aa5565b91505092915050565b6000610b868383610ca2565b905092915050565b610b9781610f59565b82525050565b610ba681610f47565b82525050565b6000610bb782610ef1565b610bc18185610f14565b935083602082028501610bd385610ee1565b8060005b85811015610c0f5784840389528151610bf08582610b7a565b9450610bfb83610f07565b925060208a01995050600181019050610bd7565b50829750879550505050505092915050565b610c2a81610f95565b82525050565b6000610c3b82610efc565b610c458185610f25565b9350610c55818560208601610fb6565b610c5e81611122565b840191505092915050565b6000610c7482610efc565b610c7e8185610f36565b9350610c8e818560208601610fb6565b610c9781611122565b840191505092915050565b600060c083016000830151610cba6000860182610dd0565b506020830151610ccd6020860182610b8e565b5060408301518482036040860152610ce58282610c30565b91505060608301518482036060860152610cff8282610c30565b91505060808301518482036080860152610d198282610c30565b91505060a0830151610d2e60a0860182610dd0565b508091505092915050565b600060c083016000830151610d516000860182610dd0565b506020830151610d646020860182610b8e565b5060408301518482036040860152610d7c8282610c30565b91505060608301518482036060860152610d968282610c30565b91505060808301518482036080860152610db08282610c30565b91505060a0830151610dc560a0860182610dd0565b508091505092915050565b610dd981610f8b565b82525050565b600060a082019050610df46000830188610b9d565b8181036020830152610e068187610c69565b90508181036040830152610e1a8186610c69565b90508181036060830152610e2e8185610c69565b9050610e3d6080830184610c21565b9695505050505050565b60006020820190508181036000830152610e618184610bac565b905092915050565b60006020820190508181036000830152610e838184610d39565b905092915050565b6000610e95610ea6565b9050610ea1828261101b565b919050565b6000604051905090565b600067ffffffffffffffff821115610ecb57610eca6110f3565b5b610ed482611122565b9050602081019050919050565b6000819050602082019050919050565b600081519050919050565b600081519050919050565b6000602082019050919050565b600082825260208201905092915050565b600082825260208201905092915050565b600082825260208201905092915050565b6000610f5282610f6b565b9050919050565b6000610f6482610f6b565b9050919050565b600073ffffffffffffffffffffffffffffffffffffffff82169050919050565b6000819050919050565b6000610fa082610f8b565b9050919050565b82818337600083830152505050565b60005b83811015610fd4578082015181840152602081019050610fb9565b83811115610fe3576000848401525b50505050565b6000600282049050600182168061100157607f821691505b60208210811415611015576110146110c4565b5b50919050565b61102482611122565b810181811067ffffffffffffffff82111715611043576110426110f3565b5b80604052505050565b600061105782610f8b565b91507fffffffffffffffffffffffffffffffffffffffffffffffffffffffffffffffff82141561108a57611089611095565b5b600182019050919050565b7f4e487b7100000000000000000000000000000000000000000000000000000000600052601160045260246000fd5b7f4e487b7100000000000000000000000000000000000000000000000000000000600052602260045260246000fd5b7f4e487b7100000000000000000000000000000000000000000000000000000000600052604160045260246000fd5b6000601f19601f8301169050919050565b61113c81610f8b565b811461114757600080fd5b5056fea2646970667358221220252c2916567a807f472a6652eec6700581f29ed3555beb92ccbbaf215a16022064736f6c63430008040033",
  "linkReferences": {},
  "deployedLinkReferences": {}
}