{
  "_format": "hh-sol-artifact-1",
  "contractName": "NewsDapp",
  "sourceName": "contracts/NewsDapp.sol",
  "abi": [
    {
      "anonymous": false,
      "inputs": [
        {
          "indexed": true,
          "internalType": "uint256",
          "name": "tokenId",
          "type": "uint256"
        },
        {
          "indexed": false,
          "internalType": "address",
          "name": "author",
          "type": "address"
        },
        {
          "indexed": false,
          "internalType": "string",
          "name": "title",
          "type": "string"
        },
        {
          "indexed": false,
          "internalType": "string",
          "name": "content",
          "type": "string"
        },
        {
          "indexed": false,
          "internalType": "string",
          "name": "time",
          "type": "string"
        },
        {
          "indexed": false,
          "internalType": "uint256",
          "name": "upvote",
          "type": "uint256"
        }
      ],
      "name": "newsCreated",
      "type": "event"
    },
    {
      "inputs": [
        {
          "internalType": "string",
          "name": "_title",
          "type": "string"
        },
        {
          "internalType": "string",
          "name": "_content",
          "type": "string"
        },
        {
          "internalType": "string",
          "name": "_time",
          "type": "string"
        }
      ],
      "name": "createNews",
      "outputs": [],
      "stateMutability": "payable",
      "type": "function"
    },
    {
      "inputs": [],
      "name": "fetchNews",
      "outputs": [
        {
          "components": [
            {
              "internalType": "uint256",
              "name": "tokenId",
              "type": "uint256"
            },
            {
              "internalType": "address payable",
              "name": "author",
              "type": "address"
            },
            {
              "internalType": "string",
              "name": "title",
              "type": "string"
            },
            {
              "internalType": "string",
              "name": "content",
              "type": "string"
            },
            {
              "internalType": "string",
              "name": "time",
              "type": "string"
            },
            {
              "internalType": "uint256",
              "name": "upvote",
              "type": "uint256"
            }
          ],
          "internalType": "struct NewsDapp.news[]",
          "name": "",
          "type": "tuple[]"
        }
      ],
      "stateMutability": "view",
      "type": "function"
    },
    {
      "inputs": [
        {
          "internalType": "uint256",
          "name": "tokenId",
          "type": "uint256"
        }
      ],
      "name": "increaseUpvote",
      "outputs": [],
      "stateMutability": "nonpayable",
      "type": "function"
    },
    {
      "inputs": [
        {
          "internalType": "uint256",
          "name": "tokenId",
          "type": "uint256"
        }
      ],
      "name": "transferSupport",
      "outputs": [],
      "stateMutability": "payable",
      "type": "function"
    }
  ],
  "bytecode": "0x608060405234801561001057600080fd5b50610dd7806100206000396000f3fe60806040526004361061003f5760003560e01c8063710db71b146100445780637a41fde214610060578063803135521461007c5780639ff95399146100a7575b600080fd5b61005e60048036038101906100599190610861565b6100d0565b005b61007a600480360381019061007591906107ca565b610150565b005b34801561008857600080fd5b506100916102bb565b60405161009e9190610ac0565b60405180910390f35b3480156100b357600080fd5b506100ce60048036038101906100c99190610861565b61060b565b005b6001600082815260200190815260200160002060010160009054906101000a900473ffffffffffffffffffffffffffffffffffffffff1673ffffffffffffffffffffffffffffffffffffffff166108fc349081150290604051600060405180830381858888f1935050505015801561014c573d6000803e3d6000fd5b5050565b61015a600061063a565b60006101666000610650565b90506040518060c001604052808281526020013373ffffffffffffffffffffffffffffffffffffffff1681526020018581526020018481526020018381526020016000815250600160008381526020019081526020016000206000820151816000015560208201518160010160006101000a81548173ffffffffffffffffffffffffffffffffffffffff021916908373ffffffffffffffffffffffffffffffffffffffff160217905550604082015181600201908051906020019061022c92919061065e565b50606082015181600301908051906020019061024992919061065e565b50608082015181600401908051906020019061026692919061065e565b5060a08201518160050155905050807f7e2df7f1d6d80d00ef34ef2f5b47d103316c62852a9018c9fc7ec3350b0ebef73386868660006040516102ad959493929190610a58565b60405180910390a250505050565b60606000806102ca6000610650565b905060008167ffffffffffffffff81111561030e577f4e487b7100000000000000000000000000000000000000000000000000000000600052604160045260246000fd5b60405190808252806020026020018201604052801561034757816020015b6103346106e4565b81526020019060019003908161032c5790505b5090506000600190505b828111610601576000600160008381526020019081526020016000209050806040518060c0016040529081600082015481526020016001820160009054906101000a900473ffffffffffffffffffffffffffffffffffffffff1673ffffffffffffffffffffffffffffffffffffffff1673ffffffffffffffffffffffffffffffffffffffff1681526020016002820180546103eb90610c40565b80601f016020809104026020016040519081016040528092919081815260200182805461041790610c40565b80156104645780601f1061043957610100808354040283529160200191610464565b820191906000526020600020905b81548152906001019060200180831161044757829003601f168201915b5050505050815260200160038201805461047d90610c40565b80601f01602080910402602001604051908101604052809291908181526020018280546104a990610c40565b80156104f65780601f106104cb576101008083540402835291602001916104f6565b820191906000526020600020905b8154815290600101906020018083116104d957829003601f168201915b5050505050815260200160048201805461050f90610c40565b80601f016020809104026020016040519081016040528092919081815260200182805461053b90610c40565b80156105885780601f1061055d57610100808354040283529160200191610588565b820191906000526020600020905b81548152906001019060200180831161056b57829003601f168201915b505050505081526020016005820154815250508386815181106105d4577f4e487b7100000000000000000000000000000000000000000000000000000000600052603260045260246000fd5b602002602001018190525084806105ea90610ca3565b9550505080806105f990610ca3565b915050610351565b5080935050505090565b60016000828152602001908152602001600020600501600081548092919061063290610ca3565b919050555050565b6001816000016000828254019250508190555050565b600081600001549050919050565b82805461066a90610c40565b90600052602060002090601f01602090048101928261068c57600085556106d3565b82601f106106a557805160ff19168380011785556106d3565b828001600101855582156106d3579182015b828111156106d25782518255916020019190600101906106b7565b5b5090506106e09190610730565b5090565b6040518060c0016040528060008152602001600073ffffffffffffffffffffffffffffffffffffffff168152602001606081526020016060815260200160608152602001600081525090565b5b80821115610749576000816000905550600101610731565b5090565b600061076061075b84610b07565b610ae2565b90508281526020810184848401111561077857600080fd5b610783848285610bfe565b509392505050565b600082601f83011261079c57600080fd5b81356107ac84826020860161074d565b91505092915050565b6000813590506107c481610d8a565b92915050565b6000806000606084860312156107df57600080fd5b600084013567ffffffffffffffff8111156107f957600080fd5b6108058682870161078b565b935050602084013567ffffffffffffffff81111561082257600080fd5b61082e8682870161078b565b925050604084013567ffffffffffffffff81111561084b57600080fd5b6108578682870161078b565b9150509250925092565b60006020828403121561087357600080fd5b6000610881848285016107b5565b91505092915050565b600061089683836109b2565b905092915050565b6108a781610bb0565b82525050565b6108b681610b9e565b82525050565b60006108c782610b48565b6108d18185610b6b565b9350836020820285016108e385610b38565b8060005b8581101561091f5784840389528151610900858261088a565b945061090b83610b5e565b925060208a019950506001810190506108e7565b50829750879550505050505092915050565b61093a81610bec565b82525050565b600061094b82610b53565b6109558185610b7c565b9350610965818560208601610c0d565b61096e81610d79565b840191505092915050565b600061098482610b53565b61098e8185610b8d565b935061099e818560208601610c0d565b6109a781610d79565b840191505092915050565b600060c0830160008301516109ca6000860182610a49565b5060208301516109dd602086018261089e565b50604083015184820360408601526109f58282610940565b91505060608301518482036060860152610a0f8282610940565b91505060808301518482036080860152610a298282610940565b91505060a0830151610a3e60a0860182610a49565b508091505092915050565b610a5281610be2565b82525050565b600060a082019050610a6d60008301886108ad565b8181036020830152610a7f8187610979565b90508181036040830152610a938186610979565b90508181036060830152610aa78185610979565b9050610ab66080830184610931565b9695505050505050565b60006020820190508181036000830152610ada81846108bc565b905092915050565b6000610aec610afd565b9050610af88282610c72565b919050565b6000604051905090565b600067ffffffffffffffff821115610b2257610b21610d4a565b5b610b2b82610d79565b9050602081019050919050565b6000819050602082019050919050565b600081519050919050565b600081519050919050565b6000602082019050919050565b600082825260208201905092915050565b600082825260208201905092915050565b600082825260208201905092915050565b6000610ba982610bc2565b9050919050565b6000610bbb82610bc2565b9050919050565b600073ffffffffffffffffffffffffffffffffffffffff82169050919050565b6000819050919050565b6000610bf782610be2565b9050919050565b82818337600083830152505050565b60005b83811015610c2b578082015181840152602081019050610c10565b83811115610c3a576000848401525b50505050565b60006002820490506001821680610c5857607f821691505b60208210811415610c6c57610c6b610d1b565b5b50919050565b610c7b82610d79565b810181811067ffffffffffffffff82111715610c9a57610c99610d4a565b5b80604052505050565b6000610cae82610be2565b91507fffffffffffffffffffffffffffffffffffffffffffffffffffffffffffffffff821415610ce157610ce0610cec565b5b600182019050919050565b7f4e487b7100000000000000000000000000000000000000000000000000000000600052601160045260246000fd5b7f4e487b7100000000000000000000000000000000000000000000000000000000600052602260045260246000fd5b7f4e487b7100000000000000000000000000000000000000000000000000000000600052604160045260246000fd5b6000601f19601f8301169050919050565b610d9381610be2565b8114610d9e57600080fd5b5056fea26469706673582212208d026205a80b10d0937cfcb408cdf3c5de8a51d884cc85b779e1cd681bdaa10e64736f6c63430008040033",
  "linkReferences": {},
  "deployedLinkReferences": {}
}